{
  "_format": "hh-sol-artifact-1",
  "contractName": "WebsiteMonitor",
  "sourceName": "contracts/WebsiteMonitor.sol",
  "abi": [
    {
      "anonymous": false,
      "inputs": [
        {
          "indexed": true,
          "internalType": "bytes32",
          "name": "websiteId",
          "type": "bytes32"
        },
        {
          "indexed": false,
          "internalType": "uint256",
          "name": "amount",
          "type": "uint256"
        }
      ],
      "name": "BalanceAdded",
      "type": "event"
    },
    {
      "anonymous": false,
      "inputs": [
        {
          "indexed": true,
          "internalType": "address",
          "name": "validator",
          "type": "address"
        },
        {
          "indexed": false,
          "internalType": "uint256",
          "name": "amount",
          "type": "uint256"
        }
      ],
      "name": "Payout",
      "type": "event"
    },
    {
      "anonymous": false,
      "inputs": [
        {
          "indexed": true,
          "internalType": "bytes32",
          "name": "websiteId",
          "type": "bytes32"
        },
        {
          "indexed": true,
          "internalType": "address",
          "name": "validator",
          "type": "address"
        }
      ],
      "name": "TickAdded",
      "type": "event"
    },
    {
      "anonymous": false,
      "inputs": [
        {
          "indexed": true,
          "internalType": "bytes32",
          "name": "websiteId",
          "type": "bytes32"
        },
        {
          "indexed": true,
          "internalType": "address",
          "name": "owner",
          "type": "address"
        }
      ],
      "name": "WebsiteCreated",
      "type": "event"
    },
    {
      "anonymous": false,
      "inputs": [
        {
          "indexed": true,
          "internalType": "bytes32",
          "name": "websiteId",
          "type": "bytes32"
        },
        {
          "indexed": true,
          "internalType": "address",
          "name": "owner",
          "type": "address"
        }
      ],
      "name": "WebsiteDeleted",
      "type": "event"
    },
    {
      "inputs": [
        {
          "components": [
            {
              "internalType": "bytes32",
              "name": "websiteId",
              "type": "bytes32"
            },
            {
              "internalType": "enum WebsiteMonitor.WebsiteStatus",
              "name": "status",
              "type": "uint8"
            },
            {
              "internalType": "uint256",
              "name": "latency",
              "type": "uint256"
            }
          ],
          "internalType": "struct WebsiteMonitor.TickInput[]",
          "name": "ticks",
          "type": "tuple[]"
        }
      ],
      "name": "addMultipleTicks",
      "outputs": [],
      "stateMutability": "nonpayable",
      "type": "function"
    },
    {
      "inputs": [
        {
          "internalType": "bytes32",
          "name": "websiteId",
          "type": "bytes32"
        },
        {
          "internalType": "enum WebsiteMonitor.WebsiteStatus",
          "name": "status",
          "type": "uint8"
        },
        {
          "internalType": "uint256",
          "name": "latency",
          "type": "uint256"
        }
      ],
      "name": "addTick",
      "outputs": [],
      "stateMutability": "nonpayable",
      "type": "function"
    },
    {
      "inputs": [
        {
          "internalType": "bytes32",
          "name": "websiteId",
          "type": "bytes32"
        }
      ],
      "name": "addWebsiteBalance",
      "outputs": [],
      "stateMutability": "payable",
      "type": "function"
    },
    {
      "inputs": [
        {
          "internalType": "string",
          "name": "_url",
          "type": "string"
        },
        {
          "internalType": "string",
          "name": "_contactInfo",
          "type": "string"
        }
      ],
      "name": "createWebsite",
      "outputs": [
        {
          "internalType": "bytes32",
          "name": "",
          "type": "bytes32"
        }
      ],
      "stateMutability": "nonpayable",
      "type": "function"
    },
    {
      "inputs": [
        {
          "internalType": "bytes32",
          "name": "websiteId",
          "type": "bytes32"
        }
      ],
      "name": "deleteWebsite",
      "outputs": [],
      "stateMutability": "nonpayable",
      "type": "function"
    },
    {
      "inputs": [],
      "name": "getAllWebsites",
      "outputs": [
        {
          "internalType": "bytes32[]",
          "name": "ids",
          "type": "bytes32[]"
        },
        {
          "components": [
            {
              "internalType": "string",
              "name": "url",
              "type": "string"
            },
            {
              "internalType": "address",
              "name": "owner",
              "type": "address"
            },
            {
              "internalType": "bool",
              "name": "disabled",
              "type": "bool"
            },
            {
              "internalType": "string",
              "name": "contactInfo",
              "type": "string"
            },
            {
              "internalType": "uint256",
              "name": "currentBalance",
              "type": "uint256"
            }
          ],
          "internalType": "struct WebsiteMonitor.WebsiteBasic[]",
          "name": "details",
          "type": "tuple[]"
        }
      ],
      "stateMutability": "view",
      "type": "function"
    },
    {
      "inputs": [],
      "name": "getMyPayouts",
      "outputs": [],
      "stateMutability": "nonpayable",
      "type": "function"
    },
    {
      "inputs": [],
      "name": "getMyWebsites",
      "outputs": [
        {
          "internalType": "bytes32[]",
          "name": "",
          "type": "bytes32[]"
        }
      ],
      "stateMutability": "view",
      "type": "function"
    },
    {
      "inputs": [
        {
          "internalType": "bytes32",
          "name": "websiteId",
          "type": "bytes32"
        },
        {
          "internalType": "uint256",
          "name": "n",
          "type": "uint256"
        }
      ],
      "name": "getRecentTicks",
      "outputs": [
        {
          "components": [
            {
              "internalType": "address",
              "name": "validator",
              "type": "address"
            },
            {
              "internalType": "uint256",
              "name": "createdAt",
              "type": "uint256"
            },
            {
              "internalType": "enum WebsiteMonitor.WebsiteStatus",
              "name": "status",
              "type": "uint8"
            },
            {
              "internalType": "uint256",
              "name": "latency",
              "type": "uint256"
            },
            {
              "internalType": "string",
              "name": "location",
              "type": "string"
            }
          ],
          "internalType": "struct WebsiteMonitor.WebsiteTick[]",
          "name": "",
          "type": "tuple[]"
        }
      ],
      "stateMutability": "view",
      "type": "function"
    },
    {
      "inputs": [
        {
          "internalType": "address",
          "name": "validatorAddress",
          "type": "address"
        }
      ],
      "name": "getValidator",
      "outputs": [
        {
          "internalType": "string",
          "name": "",
          "type": "string"
        },
        {
          "internalType": "string",
          "name": "",
          "type": "string"
        },
        {
          "internalType": "uint256",
          "name": "",
          "type": "uint256"
        }
      ],
      "stateMutability": "view",
      "type": "function"
    },
    {
      "inputs": [
        {
          "internalType": "bytes32",
          "name": "websiteId",
          "type": "bytes32"
        }
      ],
      "name": "getWebsite",
      "outputs": [
        {
          "internalType": "string",
          "name": "url",
          "type": "string"
        },
        {
          "internalType": "address",
          "name": "owner",
          "type": "address"
        },
        {
          "internalType": "bool",
          "name": "disabled",
          "type": "bool"
        },
        {
          "internalType": "string",
          "name": "contactInfo",
          "type": "string"
        },
        {
          "internalType": "uint256",
          "name": "currentBalance",
          "type": "uint256"
        }
      ],
      "stateMutability": "view",
      "type": "function"
    },
    {
      "inputs": [
        {
          "internalType": "bytes32",
          "name": "websiteId",
          "type": "bytes32"
        }
      ],
      "name": "getWebsiteBalance",
      "outputs": [
        {
          "internalType": "uint256",
          "name": "",
          "type": "uint256"
        }
      ],
      "stateMutability": "view",
      "type": "function"
    },
    {
      "inputs": [
        {
          "internalType": "bytes32",
          "name": "websiteId",
          "type": "bytes32"
        }
      ],
      "name": "getWebsiteTicks",
      "outputs": [
        {
          "components": [
            {
              "internalType": "address",
              "name": "validator",
              "type": "address"
            },
            {
              "internalType": "uint256",
              "name": "createdAt",
              "type": "uint256"
            },
            {
              "internalType": "enum WebsiteMonitor.WebsiteStatus",
              "name": "status",
              "type": "uint8"
            },
            {
              "internalType": "uint256",
              "name": "latency",
              "type": "uint256"
            },
            {
              "internalType": "string",
              "name": "location",
              "type": "string"
            }
          ],
          "internalType": "struct WebsiteMonitor.WebsiteTick[]",
          "name": "",
          "type": "tuple[]"
        }
      ],
      "stateMutability": "view",
      "type": "function"
    },
    {
      "inputs": [
        {
          "internalType": "address",
          "name": "validatorAddress",
          "type": "address"
        }
      ],
      "name": "isValidatorAuthenticated",
      "outputs": [
        {
          "internalType": "bool",
          "name": "",
          "type": "bool"
        }
      ],
      "stateMutability": "view",
      "type": "function"
    },
    {
      "inputs": [],
      "name": "myPendingPayout",
      "outputs": [
        {
          "internalType": "uint256",
          "name": "",
          "type": "uint256"
        }
      ],
      "stateMutability": "view",
      "type": "function"
    },
    {
      "inputs": [
        {
          "internalType": "string",
          "name": "_publicKey",
          "type": "string"
        },
        {
          "internalType": "string",
          "name": "_location",
          "type": "string"
        }
      ],
      "name": "registerValidator",
      "outputs": [],
      "stateMutability": "nonpayable",
      "type": "function"
    },
    {
      "inputs": [
        {
          "internalType": "address",
          "name": "",
          "type": "address"
        },
        {
          "internalType": "uint256",
          "name": "",
          "type": "uint256"
        }
      ],
      "name": "userWebsiteIds",
      "outputs": [
        {
          "internalType": "bytes32",
          "name": "",
          "type": "bytes32"
        }
      ],
      "stateMutability": "view",
      "type": "function"
    },
    {
      "inputs": [
        {
          "internalType": "address",
          "name": "",
          "type": "address"
        }
      ],
      "name": "validators",
      "outputs": [
        {
          "internalType": "string",
          "name": "publicKey",
          "type": "string"
        },
        {
          "internalType": "string",
          "name": "location",
          "type": "string"
        },
        {
          "internalType": "uint256",
          "name": "pendingPayouts",
          "type": "uint256"
        }
      ],
      "stateMutability": "view",
      "type": "function"
    },
    {
      "inputs": [
        {
          "internalType": "bytes32",
          "name": "",
          "type": "bytes32"
        }
      ],
      "name": "websites",
      "outputs": [
        {
          "internalType": "string",
          "name": "url",
          "type": "string"
        },
        {
          "internalType": "address",
          "name": "owner",
          "type": "address"
        },
        {
          "internalType": "bool",
          "name": "disabled",
          "type": "bool"
        },
        {
          "internalType": "string",
          "name": "contactInfo",
          "type": "string"
        },
        {
          "internalType": "uint256",
          "name": "currentBalance",
          "type": "uint256"
        }
      ],
      "stateMutability": "view",
      "type": "function"
    },
    {
      "stateMutability": "payable",
      "type": "receive"
    }
  ],
  "bytecode": "0x6080604052348015600f57600080fd5b506137248061001f6000396000f3fe6080604052600436106101185760003560e01c8063873ebf75116100a0578063c34e138111610064578063c34e1381146103c1578063c59b7d3514610402578063d500cbc31461043f578063e974cd4714610480578063fa52c7d8146104ac5761011f565b8063873ebf75146102c55780639f97497f14610302578063ac3d60491461031e578063b167cf951461035b578063b78650aa146103985761011f565b80633d90dac2116100e75780633d90dac2146101e257806345adbe801461021f5780636382db97146102365780636d85f4121461025f5780637c0100de146102885761011f565b806305b8ee01146101245780631904bb2e1461014f5780633a83783d1461018e5780633d81380d146101b95761011f565b3661011f57005b600080fd5b34801561013057600080fd5b506101396104eb565b604051610146919061249a565b60405180910390f35b34801561015b57600080fd5b506101766004803603810190610171919061252e565b6106a8565b60405161018593929190612604565b60405180910390f35b34801561019a57600080fd5b506101a3610875565b6040516101b09190612649565b60405180910390f35b3480156101c557600080fd5b506101e060048036038101906101db9190612799565b6108bf565b005b3480156101ee57600080fd5b5061020960048036038101906102049190612799565b610965565b6040516102169190612820565b60405180910390f35b34801561022b57600080fd5b50610234610ba8565b005b34801561024257600080fd5b5061025d60048036038101906102589190612867565b610d12565b005b34801561026b57600080fd5b50610286600480360381019061028191906128f4565b610e1f565b005b34801561029457600080fd5b506102af60048036038101906102aa919061296d565b611195565b6040516102bc9190612820565b60405180910390f35b3480156102d157600080fd5b506102ec60048036038101906102e7919061252e565b6111c6565b6040516102f991906129c8565b60405180910390f35b61031c60048036038101906103179190612867565b611221565b005b34801561032a57600080fd5b5061034560048036038101906103409190612867565b6112ec565b6040516103529190612649565b60405180910390f35b34801561036757600080fd5b50610382600480360381019061037d91906129e3565b61130b565b60405161038f9190612c3a565b60405180910390f35b3480156103a457600080fd5b506103bf60048036038101906103ba9190612c81565b611557565b005b3480156103cd57600080fd5b506103e860048036038101906103e39190612867565b611912565b6040516103f9959493929190612ce3565b60405180910390f35b34801561040e57600080fd5b5061042960048036038101906104249190612867565b611a85565b6040516104369190612c3a565b60405180910390f35b34801561044b57600080fd5b5061046660048036038101906104619190612867565b611c30565b604051610477959493929190612ce3565b60405180910390f35b34801561048c57600080fd5b50610495611e11565b6040516104a3929190612e92565b60405180910390f35b3480156104b857600080fd5b506104d360048036038101906104ce919061252e565b6121c7565b6040516104e293929190612604565b60405180910390f35b60606000600260003373ffffffffffffffffffffffffffffffffffffffff1673ffffffffffffffffffffffffffffffffffffffff1681526020019081526020016000209050600080600090505b82805490508110156105a45760008084838154811061055a57610559612ec9565b5b9060005260206000200154815260200190815260200160002060010160149054906101000a900460ff1661059757818061059390612f27565b9250505b8080600101915050610538565b5060008167ffffffffffffffff8111156105c1576105c061266e565b5b6040519080825280602002602001820160405280156105ef5781602001602082028036833780820191505090505b5090506000805b848054905081101561069d5760008086838154811061061857610617612ec9565b5b9060005260206000200154815260200190815260200160002060010160149054906101000a900460ff166106905784818154811061065957610658612ec9565b5b906000526020600020015483838061067090612f27565b94508151811061068357610682612ec9565b5b6020026020010181815250505b80806001019150506105f6565b508194505050505090565b606080600080600160008673ffffffffffffffffffffffffffffffffffffffff1673ffffffffffffffffffffffffffffffffffffffff1681526020019081526020016000209050600081600001805461070090612f9e565b905003610742576040517f08c379a00000000000000000000000000000000000000000000000000000000081526004016107399061301b565b60405180910390fd5b8060000181600101826002015482805461075b90612f9e565b80601f016020809104026020016040519081016040528092919081815260200182805461078790612f9e565b80156107d45780601f106107a9576101008083540402835291602001916107d4565b820191906000526020600020905b8154815290600101906020018083116107b757829003601f168201915b505050505092508180546107e790612f9e565b80601f016020809104026020016040519081016040528092919081815260200182805461081390612f9e565b80156108605780601f1061083557610100808354040283529160200191610860565b820191906000526020600020905b81548152906001019060200180831161084357829003601f168201915b50505050509150935093509350509193909250565b6000600160003373ffffffffffffffffffffffffffffffffffffffff1673ffffffffffffffffffffffffffffffffffffffff16815260200190815260200160002060020154905090565b6108c8336111c6565b6109615760405180606001604052808381526020018281526020016000815250600160003373ffffffffffffffffffffffffffffffffffffffff1673ffffffffffffffffffffffffffffffffffffffff168152602001908152602001600020600082015181600001908161093c91906131e7565b50602082015181600101908161095291906131e7565b50604082015181600201559050505b5050565b6000806109728433612301565b905060008060008381526020019081526020016000209050600081600001805461099b90612f9e565b905014610a6457600115158160010160149054906101000a900460ff161515146109fa576040517f08c379a00000000000000000000000000000000000000000000000000000000081526004016109f190613305565b60405180910390fd5b60008160010160146101000a81548160ff021916908315150217905550338160010160006101000a81548173ffffffffffffffffffffffffffffffffffffffff021916908373ffffffffffffffffffffffffffffffffffffffff1602179055508192505050610ba2565b84816000019081610a7591906131e7565b50338160010160006101000a81548173ffffffffffffffffffffffffffffffffffffffff021916908373ffffffffffffffffffffffffffffffffffffffff16021790555060008160010160146101000a81548160ff02191690831515021790555083816003019081610ae791906131e7565b5060008160040181905550600260003373ffffffffffffffffffffffffffffffffffffffff1673ffffffffffffffffffffffffffffffffffffffff1681526020019081526020016000208290806001815401808255809150506001900390600052602060002001600090919091909150553373ffffffffffffffffffffffffffffffffffffffff16827fc1b444ef06174e977569701038816410dfebf9993ea804886454926ba841a55760405160405180910390a381925050505b92915050565b6000600160003373ffffffffffffffffffffffffffffffffffffffff1673ffffffffffffffffffffffffffffffffffffffff16815260200190815260200160002060020154905060008111610c32576040517f08c379a0000000000000000000000000000000000000000000000000000000008152600401610c2990613371565b60405180910390fd5b6000600160003373ffffffffffffffffffffffffffffffffffffffff1673ffffffffffffffffffffffffffffffffffffffff168152602001908152602001600020600201819055503373ffffffffffffffffffffffffffffffffffffffff166108fc829081150290604051600060405180830381858888f19350505050158015610cc0573d6000803e3d6000fd5b503373ffffffffffffffffffffffffffffffffffffffff167f5afeca38b2064c23a692c4cf353015d80ab3ecc417b4f893f372690c11fbd9a682604051610d079190612649565b60405180910390a250565b600080600083815260200190815260200160002090503373ffffffffffffffffffffffffffffffffffffffff168160010160009054906101000a900473ffffffffffffffffffffffffffffffffffffffff1673ffffffffffffffffffffffffffffffffffffffff1614610dba576040517f08c379a0000000000000000000000000000000000000000000000000000000008152600401610db1906133dd565b60405180910390fd5b60018160010160146101000a81548160ff0219169083151502179055503373ffffffffffffffffffffffffffffffffffffffff16827f46d62b0915a248fdf1bc495e5ebbc0eccb61d9f66c96af765bdfe4cba2727bbe60405160405180910390a35050565b60005b828290508110156111905736838383818110610e4157610e40612ec9565b5b905060600201905060008060008360000135815260200190815260200160002090506000816000018054610e7490612f9e565b905003610e82575050611183565b8060010160149054906101000a900460ff1615610ea0575050611183565b655af3107a400081600401541015610eb9575050611183565b806002016040518060a001604052803373ffffffffffffffffffffffffffffffffffffffff168152602001428152602001846020016020810190610efd91906133fd565b6002811115610f0f57610f0e612a6d565b5b815260200184604001358152602001600160003373ffffffffffffffffffffffffffffffffffffffff1673ffffffffffffffffffffffffffffffffffffffff1681526020019081526020016000206001018054610f6b90612f9e565b80601f0160208091040260200160405190810160405280929190818152602001828054610f9790612f9e565b8015610fe45780601f10610fb957610100808354040283529160200191610fe4565b820191906000526020600020905b815481529060010190602001808311610fc757829003601f168201915b5050505050815250908060018154018082558091505060019003906000526020600020906005020160009091909190915060008201518160000160006101000a81548173ffffffffffffffffffffffffffffffffffffffff021916908373ffffffffffffffffffffffffffffffffffffffff1602179055506020820151816001015560408201518160020160006101000a81548160ff0219169083600281111561109157611090612a6d565b5b02179055506060820151816003015560808201518160040190816110b591906131e7565b505050655af3107a4000600160003373ffffffffffffffffffffffffffffffffffffffff1673ffffffffffffffffffffffffffffffffffffffff1681526020019081526020016000206002016000828254611110919061342a565b92505081905550655af3107a4000816004016000828254611131919061345e565b925050819055503373ffffffffffffffffffffffffffffffffffffffff1682600001357fb837c4e01b2b2c075889b6726c4f8d7b59157d5c8f74d147a11fb60fa42ebe3760405160405180910390a350505b8080600101915050610e22565b505050565b600260205281600052604060002081815481106111b157600080fd5b90600052602060002001600091509150505481565b600080600160008473ffffffffffffffffffffffffffffffffffffffff1673ffffffffffffffffffffffffffffffffffffffff168152602001908152602001600020600001805461121690612f9e565b905014159050919050565b6000806000838152602001908152602001600020600001805461124390612f9e565b905003611285576040517f08c379a000000000000000000000000000000000000000000000000000000000815260040161127c906134de565b60405180910390fd5b3460008083815260200190815260200160002060040160008282546112aa919061342a565b92505081905550807fb4297c905363b3300fa9d37a960912c655d24e0907617d5cbfda64ae8a628cda346040516112e19190612649565b60405180910390a250565b6000806000838152602001908152602001600020600401549050919050565b606060008060008581526020019081526020016000206002019050600081805490509050600081851161133e5784611340565b815b905060008167ffffffffffffffff81111561135e5761135d61266e565b5b60405190808252806020026020018201604052801561139757816020015b611384612334565b81526020019060019003908161137c5790505b50905060005b8281101561154957848184866113b3919061345e565b6113bd919061342a565b815481106113ce576113cd612ec9565b5b90600052602060002090600502016040518060a00160405290816000820160009054906101000a900473ffffffffffffffffffffffffffffffffffffffff1673ffffffffffffffffffffffffffffffffffffffff1673ffffffffffffffffffffffffffffffffffffffff168152602001600182015481526020016002820160009054906101000a900460ff16600281111561146c5761146b612a6d565b5b600281111561147e5761147d612a6d565b5b81526020016003820154815260200160048201805461149c90612f9e565b80601f01602080910402602001604051908101604052809291908181526020018280546114c890612f9e565b80156115155780601f106114ea57610100808354040283529160200191611515565b820191906000526020600020905b8154815290600101906020018083116114f857829003601f168201915b50505050508152505082828151811061153157611530612ec9565b5b6020026020010181905250808060010191505061139d565b508094505050505092915050565b60008060008581526020019081526020016000209050600081600001805461157e90612f9e565b9050036115c0576040517f08c379a00000000000000000000000000000000000000000000000000000000081526004016115b7906134de565b60405180910390fd5b8060010160149054906101000a900460ff1615611612576040517f08c379a00000000000000000000000000000000000000000000000000000000081526004016116099061354a565b60405180910390fd5b655af3107a40008160040154101561165f576040517f08c379a0000000000000000000000000000000000000000000000000000000008152600401611656906135b6565b60405180910390fd5b806002016040518060a001604052803373ffffffffffffffffffffffffffffffffffffffff1681526020014281526020018560028111156116a3576116a2612a6d565b5b8152602001848152602001600160003373ffffffffffffffffffffffffffffffffffffffff1673ffffffffffffffffffffffffffffffffffffffff16815260200190815260200160002060010180546116fb90612f9e565b80601f016020809104026020016040519081016040528092919081815260200182805461172790612f9e565b80156117745780601f1061174957610100808354040283529160200191611774565b820191906000526020600020905b81548152906001019060200180831161175757829003601f168201915b5050505050815250908060018154018082558091505060019003906000526020600020906005020160009091909190915060008201518160000160006101000a81548173ffffffffffffffffffffffffffffffffffffffff021916908373ffffffffffffffffffffffffffffffffffffffff1602179055506020820151816001015560408201518160020160006101000a81548160ff0219169083600281111561182157611820612a6d565b5b021790555060608201518160030155608082015181600401908161184591906131e7565b505050655af3107a4000600160003373ffffffffffffffffffffffffffffffffffffffff1673ffffffffffffffffffffffffffffffffffffffff16815260200190815260200160002060020160008282546118a0919061342a565b92505081905550655af3107a40008160040160008282546118c1919061345e565b925050819055503373ffffffffffffffffffffffffffffffffffffffff16847fb837c4e01b2b2c075889b6726c4f8d7b59157d5c8f74d147a11fb60fa42ebe3760405160405180910390a350505050565b600060205280600052604060002060009150905080600001805461193590612f9e565b80601f016020809104026020016040519081016040528092919081815260200182805461196190612f9e565b80156119ae5780601f10611983576101008083540402835291602001916119ae565b820191906000526020600020905b81548152906001019060200180831161199157829003601f168201915b5050505050908060010160009054906101000a900473ffffffffffffffffffffffffffffffffffffffff16908060010160149054906101000a900460ff16908060030180546119fc90612f9e565b80601f0160208091040260200160405190810160405280929190818152602001828054611a2890612f9e565b8015611a755780601f10611a4a57610100808354040283529160200191611a75565b820191906000526020600020905b815481529060010190602001808311611a5857829003601f168201915b5050505050908060040154905085565b6060600080838152602001908152602001600020600201805480602002602001604051908101604052809291908181526020016000905b82821015611c2557838290600052602060002090600502016040518060a00160405290816000820160009054906101000a900473ffffffffffffffffffffffffffffffffffffffff1673ffffffffffffffffffffffffffffffffffffffff1673ffffffffffffffffffffffffffffffffffffffff168152602001600182015481526020016002820160009054906101000a900460ff166002811115611b6457611b63612a6d565b5b6002811115611b7657611b75612a6d565b5b815260200160038201548152602001600482018054611b9490612f9e565b80601f0160208091040260200160405190810160405280929190818152602001828054611bc090612f9e565b8015611c0d5780601f10611be257610100808354040283529160200191611c0d565b820191906000526020600020905b815481529060010190602001808311611bf057829003601f168201915b50505050508152505081526020019060010190611abc565b505050509050919050565b6060600080606060008060008088815260200190815260200160002090506000816000018054611c5f90612f9e565b905003611ca1576040517f08c379a0000000000000000000000000000000000000000000000000000000008152600401611c9890613622565b60405180910390fd5b806000018160010160009054906101000a900473ffffffffffffffffffffffffffffffffffffffff168260010160149054906101000a900460ff16836003018460040154848054611cf190612f9e565b80601f0160208091040260200160405190810160405280929190818152602001828054611d1d90612f9e565b8015611d6a5780601f10611d3f57610100808354040283529160200191611d6a565b820191906000526020600020905b815481529060010190602001808311611d4d57829003601f168201915b50505050509450818054611d7d90612f9e565b80601f0160208091040260200160405190810160405280929190818152602001828054611da990612f9e565b8015611df65780601f10611dcb57610100808354040283529160200191611df6565b820191906000526020600020905b815481529060010190602001808311611dd957829003601f168201915b50505050509150955095509550955095505091939590929450565b606080600080600260003373ffffffffffffffffffffffffffffffffffffffff1673ffffffffffffffffffffffffffffffffffffffff168152602001908152602001600020905060005b8180549050811015611ec757600080838381548110611e7d57611e7c612ec9565b5b9060005260206000200154815260200190815260200160002060010160149054906101000a900460ff16611eba578280611eb690612f27565b9350505b8080600101915050611e5b565b5060008267ffffffffffffffff811115611ee457611ee361266e565b5b604051908082528060200260200182016040528015611f1d57816020015b611f0a61238b565b815260200190600190039081611f025790505b50905060008367ffffffffffffffff811115611f3c57611f3b61266e565b5b604051908082528060200260200182016040528015611f6a5781602001602082028036833780820191505090505b5090506000805b84805490508110156121b7576000858281548110611f9257611f91612ec9565b5b90600052602060002001549050600080600083815260200190815260200160002090508060010160149054906101000a900460ff166121a8576040518060a00160405280826000018054611fe590612f9e565b80601f016020809104026020016040519081016040528092919081815260200182805461201190612f9e565b801561205e5780601f106120335761010080835404028352916020019161205e565b820191906000526020600020905b81548152906001019060200180831161204157829003601f168201915b505050505081526020018260010160009054906101000a900473ffffffffffffffffffffffffffffffffffffffff1673ffffffffffffffffffffffffffffffffffffffff1681526020018260010160149054906101000a900460ff16151581526020018260030180546120d090612f9e565b80601f01602080910402602001604051908101604052809291908181526020018280546120fc90612f9e565b80156121495780601f1061211e57610100808354040283529160200191612149565b820191906000526020600020905b81548152906001019060200180831161212c57829003601f168201915b50505050508152602001826004015481525086858151811061216e5761216d612ec9565b5b60200260200101819052508185858151811061218d5761218c612ec9565b5b60200260200101818152505083806121a490612f27565b9450505b50508080600101915050611f71565b5081839650965050505050509091565b60016020528060005260406000206000915090508060000180546121ea90612f9e565b80601f016020809104026020016040519081016040528092919081815260200182805461221690612f9e565b80156122635780601f1061223857610100808354040283529160200191612263565b820191906000526020600020905b81548152906001019060200180831161224657829003601f168201915b50505050509080600101805461227890612f9e565b80601f01602080910402602001604051908101604052809291908181526020018280546122a490612f9e565b80156122f15780601f106122c6576101008083540402835291602001916122f1565b820191906000526020600020905b8154815290600101906020018083116122d457829003601f168201915b5050505050908060020154905083565b600082826040516020016123169291906136c6565b60405160208183030381529060405280519060200120905092915050565b6040518060a00160405280600073ffffffffffffffffffffffffffffffffffffffff168152602001600081526020016000600281111561237757612376612a6d565b5b815260200160008152602001606081525090565b6040518060a0016040528060608152602001600073ffffffffffffffffffffffffffffffffffffffff16815260200160001515815260200160608152602001600081525090565b600081519050919050565b600082825260208201905092915050565b6000819050602082019050919050565b6000819050919050565b612411816123fe565b82525050565b60006124238383612408565b60208301905092915050565b6000602082019050919050565b6000612447826123d2565b61245181856123dd565b935061245c836123ee565b8060005b8381101561248d5781516124748882612417565b975061247f8361242f565b925050600181019050612460565b5085935050505092915050565b600060208201905081810360008301526124b4818461243c565b905092915050565b6000604051905090565b600080fd5b600080fd5b600073ffffffffffffffffffffffffffffffffffffffff82169050919050565b60006124fb826124d0565b9050919050565b61250b816124f0565b811461251657600080fd5b50565b60008135905061252881612502565b92915050565b600060208284031215612544576125436124c6565b5b600061255284828501612519565b91505092915050565b600081519050919050565b600082825260208201905092915050565b60005b8381101561259557808201518184015260208101905061257a565b60008484015250505050565b6000601f19601f8301169050919050565b60006125bd8261255b565b6125c78185612566565b93506125d7818560208601612577565b6125e0816125a1565b840191505092915050565b6000819050919050565b6125fe816125eb565b82525050565b6000606082019050818103600083015261261e81866125b2565b9050818103602083015261263281856125b2565b905061264160408301846125f5565b949350505050565b600060208201905061265e60008301846125f5565b92915050565b600080fd5b600080fd5b7f4e487b7100000000000000000000000000000000000000000000000000000000600052604160045260246000fd5b6126a6826125a1565b810181811067ffffffffffffffff821117156126c5576126c461266e565b5b80604052505050565b60006126d86124bc565b90506126e4828261269d565b919050565b600067ffffffffffffffff8211156127045761270361266e565b5b61270d826125a1565b9050602081019050919050565b82818337600083830152505050565b600061273c612737846126e9565b6126ce565b90508281526020810184848401111561275857612757612669565b5b61276384828561271a565b509392505050565b600082601f8301126127805761277f612664565b5b8135612790848260208601612729565b91505092915050565b600080604083850312156127b0576127af6124c6565b5b600083013567ffffffffffffffff8111156127ce576127cd6124cb565b5b6127da8582860161276b565b925050602083013567ffffffffffffffff8111156127fb576127fa6124cb565b5b6128078582860161276b565b9150509250929050565b61281a816123fe565b82525050565b60006020820190506128356000830184612811565b92915050565b612844816123fe565b811461284f57600080fd5b50565b6000813590506128618161283b565b92915050565b60006020828403121561287d5761287c6124c6565b5b600061288b84828501612852565b91505092915050565b600080fd5b600080fd5b60008083601f8401126128b4576128b3612664565b5b8235905067ffffffffffffffff8111156128d1576128d0612894565b5b6020830191508360608202830111156128ed576128ec612899565b5b9250929050565b6000806020838503121561290b5761290a6124c6565b5b600083013567ffffffffffffffff811115612929576129286124cb565b5b6129358582860161289e565b92509250509250929050565b61294a816125eb565b811461295557600080fd5b50565b60008135905061296781612941565b92915050565b60008060408385031215612984576129836124c6565b5b600061299285828601612519565b92505060206129a385828601612958565b9150509250929050565b60008115159050919050565b6129c2816129ad565b82525050565b60006020820190506129dd60008301846129b9565b92915050565b600080604083850312156129fa576129f96124c6565b5b6000612a0885828601612852565b9250506020612a1985828601612958565b9150509250929050565b600081519050919050565b600082825260208201905092915050565b6000819050602082019050919050565b612a58816124f0565b82525050565b612a67816125eb565b82525050565b7f4e487b7100000000000000000000000000000000000000000000000000000000600052602160045260246000fd5b60038110612aad57612aac612a6d565b5b50565b6000819050612abe82612a9c565b919050565b6000612ace82612ab0565b9050919050565b612ade81612ac3565b82525050565b600082825260208201905092915050565b6000612b008261255b565b612b0a8185612ae4565b9350612b1a818560208601612577565b612b23816125a1565b840191505092915050565b600060a083016000830151612b466000860182612a4f565b506020830151612b596020860182612a5e565b506040830151612b6c6040860182612ad5565b506060830151612b7f6060860182612a5e565b5060808301518482036080860152612b978282612af5565b9150508091505092915050565b6000612bb08383612b2e565b905092915050565b6000602082019050919050565b6000612bd082612a23565b612bda8185612a2e565b935083602082028501612bec85612a3f565b8060005b85811015612c285784840389528151612c098582612ba4565b9450612c1483612bb8565b925060208a01995050600181019050612bf0565b50829750879550505050505092915050565b60006020820190508181036000830152612c548184612bc5565b905092915050565b60038110612c6957600080fd5b50565b600081359050612c7b81612c5c565b92915050565b600080600060608486031215612c9a57612c996124c6565b5b6000612ca886828701612852565b9350506020612cb986828701612c6c565b9250506040612cca86828701612958565b9150509250925092565b612cdd816124f0565b82525050565b600060a0820190508181036000830152612cfd81886125b2565b9050612d0c6020830187612cd4565b612d1960408301866129b9565b8181036060830152612d2b81856125b2565b9050612d3a60808301846125f5565b9695505050505050565b600081519050919050565b600082825260208201905092915050565b6000819050602082019050919050565b612d79816129ad565b82525050565b600060a0830160008301518482036000860152612d9c8282612af5565b9150506020830151612db16020860182612a4f565b506040830151612dc46040860182612d70565b5060608301518482036060860152612ddc8282612af5565b9150506080830151612df16080860182612a5e565b508091505092915050565b6000612e088383612d7f565b905092915050565b6000602082019050919050565b6000612e2882612d44565b612e328185612d4f565b935083602082028501612e4485612d60565b8060005b85811015612e805784840389528151612e618582612dfc565b9450612e6c83612e10565b925060208a01995050600181019050612e48565b50829750879550505050505092915050565b60006040820190508181036000830152612eac818561243c565b90508181036020830152612ec08184612e1d565b90509392505050565b7f4e487b7100000000000000000000000000000000000000000000000000000000600052603260045260246000fd5b7f4e487b7100000000000000000000000000000000000000000000000000000000600052601160045260246000fd5b6000612f32826125eb565b91507fffffffffffffffffffffffffffffffffffffffffffffffffffffffffffffffff8203612f6457612f63612ef8565b5b600182019050919050565b7f4e487b7100000000000000000000000000000000000000000000000000000000600052602260045260246000fd5b60006002820490506001821680612fb657607f821691505b602082108103612fc957612fc8612f6f565b5b50919050565b7f56616c696461746f72206e6f7420666f756e6400000000000000000000000000600082015250565b6000613005601383612566565b915061301082612fcf565b602082019050919050565b6000602082019050818103600083015261303481612ff8565b9050919050565b60008190508160005260206000209050919050565b60006020601f8301049050919050565b600082821b905092915050565b60006008830261309d7fffffffffffffffffffffffffffffffffffffffffffffffffffffffffffffffff82613060565b6130a78683613060565b95508019841693508086168417925050509392505050565b6000819050919050565b60006130e46130df6130da846125eb565b6130bf565b6125eb565b9050919050565b6000819050919050565b6130fe836130c9565b61311261310a826130eb565b84845461306d565b825550505050565b600090565b61312761311a565b6131328184846130f5565b505050565b5b818110156131565761314b60008261311f565b600181019050613138565b5050565b601f82111561319b5761316c8161303b565b61317584613050565b81016020851015613184578190505b61319861319085613050565b830182613137565b50505b505050565b600082821c905092915050565b60006131be600019846008026131a0565b1980831691505092915050565b60006131d783836131ad565b9150826002028217905092915050565b6131f08261255b565b67ffffffffffffffff8111156132095761320861266e565b5b6132138254612f9e565b61321e82828561315a565b600060209050601f831160018114613251576000841561323f578287015190505b61324985826131cb565b8655506132b1565b601f19841661325f8661303b565b60005b8281101561328757848901518255600182019150602085019450602081019050613262565b868310156132a457848901516132a0601f8916826131ad565b8355505b6001600288020188555050505b505050505050565b7f416c726561647920657869737473000000000000000000000000000000000000600082015250565b60006132ef600e83612566565b91506132fa826132b9565b602082019050919050565b6000602082019050818103600083015261331e816132e2565b9050919050565b7f4e6f207061796f75747300000000000000000000000000000000000000000000600082015250565b600061335b600a83612566565b915061336682613325565b602082019050919050565b6000602082019050818103600083015261338a8161334e565b9050919050565b7f556e617574686f72697a65640000000000000000000000000000000000000000600082015250565b60006133c7600c83612566565b91506133d282613391565b602082019050919050565b600060208201905081810360008301526133f6816133ba565b9050919050565b600060208284031215613413576134126124c6565b5b600061342184828501612c6c565b91505092915050565b6000613435826125eb565b9150613440836125eb565b925082820190508082111561345857613457612ef8565b5b92915050565b6000613469826125eb565b9150613474836125eb565b925082820390508181111561348c5761348b612ef8565b5b92915050565b7f5765627369746520646f65736e27742065786973740000000000000000000000600082015250565b60006134c8601583612566565b91506134d382613492565b602082019050919050565b600060208201905081810360008301526134f7816134bb565b9050919050565b7f576562736974652069732064697361626c656400000000000000000000000000600082015250565b6000613534601383612566565b915061353f826134fe565b602082019050919050565b6000602082019050818103600083015261356381613527565b9050919050565b7f496e73756666696369656e742062616c616e6365000000000000000000000000600082015250565b60006135a0601483612566565b91506135ab8261356a565b602082019050919050565b600060208201905081810360008301526135cf81613593565b9050919050565b7f4e6f7420666f756e640000000000000000000000000000000000000000000000600082015250565b600061360c600983612566565b9150613617826135d6565b602082019050919050565b6000602082019050818103600083015261363b816135ff565b9050919050565b600081905092915050565b60006136588261255b565b6136628185613642565b9350613672818560208601612577565b80840191505092915050565b60008160601b9050919050565b60006136968261367e565b9050919050565b60006136a88261368b565b9050919050565b6136c06136bb826124f0565b61369d565b82525050565b60006136d2828561364d565b91506136de82846136af565b601482019150819050939250505056fea264697066735822122008a3f58dbe9f1735b614c4756f6e2fceb9d0e3be78c0031e1053bf69cca5152964736f6c634300081c0033",
  "linkReferences": {},
  "deployedLinkReferences": {}
}